:0400000007EF00F016
:10000800158209ED00F07BEF00F00600FACF01F051
:10001800FBCF02F0E9CF03F0EACF04F0E1CF05F01F
:10002800E2CF06F0D9CF07F0DACF08F0F3CF09F026
:10003800F4CF0AF0F6CF0BF0F7CF0CF0F8CF0DF0B5
:10004800F5CF0EF015C00FF016C010F017C011F064
:1000580018C012F09DB09EA006D0C20ECF6EF60E4C
:10006800CE6E8C709E909DB29EA202D08C729E9293
:1000780012C018F011C017F010C016F00FC015F01C
:100088000EC0F5FF0DC0F8FF0CC0F7FF0BC0F6FF60
:100098000AC0F4FF09C0F3FF08C0DAFF07C0D9FFA0
:1000A80006C0E2FF05C0E1FF04C0EAFF03C0E9FFA4
:1000B80002C0FBFF01C0FAFF15921100D08E950E09
:1000C800CD6ED39CD38A9D809F809E909D829F8277
:1000D8009E92C20ECF6EF60ECE6E7F0ECA6EF40ED4
:1000E800CB6EF28E000E956E000E8C6EFFD7146AE2
:0C00F800136A15901592000162EF00F0F1
:020000040020DA
:08000000FFFFFFFFFFFFFFFF00
:020000040030CA
:0E000000FF081F1EFF8181FF0FC00FE00F40A1
:00000001FF
