:020000040000FA
:10000000010101EE20F02D0EEE6E200EEE6E8A0E36
:10001000EE6EB50EEE6E6E0EEE6EF70EEE6E570EC7
:10002000EE6E2B0EEE6E900EEE6E050EEE6ECF0E99
:10003000EE6EE50EEE6E9C0EEE6E610EEE6E580EDE
:10004000EE6E010EEE6E01EE20F011EE20F00000DB
:10005000000002D845EF00F0E9CFE1FFEACFE2FF70
:1000600005D8E92AE9A82CEF00F01200EF50E7606C
:1000700040EF00F0EFCF30F1E7CFEFFF30C1E7FF07
:10008000E12AE1A836EF00F01200010101EE20F0B4
:1000900011EE21F0E1A84FEF00F061EF00F0E65023
:1000A000EE6055EF00F04AEF00F0450E606F520E23
:1000B000616F520E626F4F0E636F520E646F6FEF7F
:1000C00000F0430E606F4F0E616F520E626F520E62
:1000D000636F450E646F430E656F540E666F0000CC
:0200E00000001E
:00000001FF
